{
  "_format": "hh-sol-artifact-1",
  "contractName": "StudentRegistryV2",
  "sourceName": "contracts/StudentRegistryV2.sol",
  "abi": [
    {
      "inputs": [],
      "stateMutability": "nonpayable",
      "type": "constructor"
    },
    {
      "inputs": [
        {
          "internalType": "uint256",
          "name": "sent",
          "type": "uint256"
        },
        {
          "internalType": "uint256",
          "name": "required",
          "type": "uint256"
        }
      ],
      "name": "InsufficientFee",
      "type": "error"
    },
    {
      "inputs": [],
      "name": "NameIsEmpty",
      "type": "error"
    },
    {
      "inputs": [
        {
          "internalType": "uint8",
          "name": "age",
          "type": "uint8"
        },
        {
          "internalType": "uint8",
          "name": "expectedAge",
          "type": "uint8"
        }
      ],
      "name": "UnderAge",
      "type": "error"
    },
    {
      "anonymous": false,
      "inputs": [
        {
          "indexed": false,
          "internalType": "address",
          "name": "_studentAddr",
          "type": "address"
        }
      ],
      "name": "AddStud",
      "type": "event"
    },
    {
      "anonymous": false,
      "inputs": [
        {
          "indexed": false,
          "internalType": "address",
          "name": "_studentAddress",
          "type": "address"
        }
      ],
      "name": "AuthorizeStudentReg",
      "type": "event"
    },
    {
      "anonymous": false,
      "inputs": [
        {
          "indexed": false,
          "internalType": "address",
          "name": "_studentAddress",
          "type": "address"
        },
        {
          "indexed": false,
          "internalType": "uint256",
          "name": "_amount",
          "type": "uint256"
        }
      ],
      "name": "FeePaid",
      "type": "event"
    },
    {
      "anonymous": false,
      "inputs": [
        {
          "indexed": false,
          "internalType": "address",
          "name": "_studentAddress",
          "type": "address"
        },
        {
          "indexed": false,
          "internalType": "string",
          "name": "_StName",
          "type": "string"
        },
        {
          "indexed": false,
          "internalType": "uint8",
          "name": "_stAge",
          "type": "uint8"
        }
      ],
      "name": "RegisterStudent",
      "type": "event"
    },
    {
      "anonymous": false,
      "inputs": [
        {
          "indexed": false,
          "internalType": "address",
          "name": "_studentAddress",
          "type": "address"
        },
        {
          "indexed": false,
          "internalType": "string",
          "name": "_StName",
          "type": "string"
        },
        {
          "indexed": false,
          "internalType": "uint8",
          "name": "_stAge",
          "type": "uint8"
        }
      ],
      "name": "UpdateStudent",
      "type": "event"
    },
    {
      "inputs": [],
      "name": "FEE_AMOUNT",
      "outputs": [
        {
          "internalType": "uint256",
          "name": "",
          "type": "uint256"
        }
      ],
      "stateMutability": "view",
      "type": "function"
    },
    {
      "inputs": [
        {
          "internalType": "address",
          "name": "_studentAddr",
          "type": "address"
        }
      ],
      "name": "authorizeStudentRegistration",
      "outputs": [],
      "stateMutability": "nonpayable",
      "type": "function"
    },
    {
      "inputs": [
        {
          "internalType": "address payable",
          "name": "_newOwner",
          "type": "address"
        }
      ],
      "name": "changeOwner",
      "outputs": [],
      "stateMutability": "nonpayable",
      "type": "function"
    },
    {
      "inputs": [
        {
          "internalType": "address",
          "name": "_studentAddr",
          "type": "address"
        }
      ],
      "name": "deleteStudent",
      "outputs": [],
      "stateMutability": "nonpayable",
      "type": "function"
    },
    {
      "inputs": [
        {
          "internalType": "uint8",
          "name": "_studentId",
          "type": "uint8"
        }
      ],
      "name": "getStudent",
      "outputs": [
        {
          "components": [
            {
              "internalType": "address",
              "name": "studentAddr",
              "type": "address"
            },
            {
              "internalType": "string",
              "name": "name",
              "type": "string"
            },
            {
              "internalType": "uint256",
              "name": "studentId",
              "type": "uint256"
            },
            {
              "internalType": "uint8",
              "name": "age",
              "type": "uint8"
            },
            {
              "internalType": "bool",
              "name": "hasPaid",
              "type": "bool"
            },
            {
              "internalType": "bool",
              "name": "isAuthorized",
              "type": "bool"
            }
          ],
          "internalType": "struct StudentRegistryV2.Student",
          "name": "",
          "type": "tuple"
        }
      ],
      "stateMutability": "view",
      "type": "function"
    },
    {
      "inputs": [
        {
          "internalType": "address",
          "name": "_studentAddr",
          "type": "address"
        }
      ],
      "name": "getStudentFromMapping",
      "outputs": [
        {
          "components": [
            {
              "internalType": "address",
              "name": "studentAddr",
              "type": "address"
            },
            {
              "internalType": "string",
              "name": "name",
              "type": "string"
            },
            {
              "internalType": "uint256",
              "name": "studentId",
              "type": "uint256"
            },
            {
              "internalType": "uint8",
              "name": "age",
              "type": "uint8"
            },
            {
              "internalType": "bool",
              "name": "hasPaid",
              "type": "bool"
            },
            {
              "internalType": "bool",
              "name": "isAuthorized",
              "type": "bool"
            }
          ],
          "internalType": "struct StudentRegistryV2.Student",
          "name": "",
          "type": "tuple"
        }
      ],
      "stateMutability": "view",
      "type": "function"
    },
    {
      "inputs": [
        {
          "internalType": "address",
          "name": "_studentAddr",
          "type": "address"
        }
      ],
      "name": "getStudentHasPaidMapping",
      "outputs": [
        {
          "internalType": "bool",
          "name": "",
          "type": "bool"
        }
      ],
      "stateMutability": "view",
      "type": "function"
    },
    {
      "inputs": [
        {
          "internalType": "address",
          "name": "_studentAddr",
          "type": "address"
        }
      ],
      "name": "getStudentTemporaryMapping",
      "outputs": [
        {
          "components": [
            {
              "internalType": "address",
              "name": "studentAddr",
              "type": "address"
            },
            {
              "internalType": "string",
              "name": "name",
              "type": "string"
            },
            {
              "internalType": "uint256",
              "name": "studentId",
              "type": "uint256"
            },
            {
              "internalType": "uint8",
              "name": "age",
              "type": "uint8"
            },
            {
              "internalType": "bool",
              "name": "hasPaid",
              "type": "bool"
            },
            {
              "internalType": "bool",
              "name": "isAuthorized",
              "type": "bool"
            }
          ],
          "internalType": "struct StudentRegistryV2.Student",
          "name": "",
          "type": "tuple"
        }
      ],
      "stateMutability": "view",
      "type": "function"
    },
    {
      "inputs": [
        {
          "internalType": "address",
          "name": "",
          "type": "address"
        }
      ],
      "name": "hasPaidMapping",
      "outputs": [
        {
          "internalType": "bool",
          "name": "",
          "type": "bool"
        }
      ],
      "stateMutability": "view",
      "type": "function"
    },
    {
      "inputs": [],
      "name": "payFee",
      "outputs": [],
      "stateMutability": "payable",
      "type": "function"
    },
    {
      "inputs": [
        {
          "internalType": "address",
          "name": "_studentAddr",
          "type": "address"
        },
        {
          "internalType": "string",
          "name": "_name",
          "type": "string"
        },
        {
          "internalType": "uint8",
          "name": "_age",
          "type": "uint8"
        }
      ],
      "name": "register",
      "outputs": [],
      "stateMutability": "nonpayable",
      "type": "function"
    },
    {
      "inputs": [
        {
          "internalType": "address",
          "name": "",
          "type": "address"
        }
      ],
      "name": "studentsMapping",
      "outputs": [
        {
          "internalType": "address",
          "name": "studentAddr",
          "type": "address"
        },
        {
          "internalType": "string",
          "name": "name",
          "type": "string"
        },
        {
          "internalType": "uint256",
          "name": "studentId",
          "type": "uint256"
        },
        {
          "internalType": "uint8",
          "name": "age",
          "type": "uint8"
        },
        {
          "internalType": "bool",
          "name": "hasPaid",
          "type": "bool"
        },
        {
          "internalType": "bool",
          "name": "isAuthorized",
          "type": "bool"
        }
      ],
      "stateMutability": "view",
      "type": "function"
    },
    {
      "inputs": [
        {
          "internalType": "address",
          "name": "",
          "type": "address"
        }
      ],
      "name": "tempstudentsMapping",
      "outputs": [
        {
          "internalType": "address",
          "name": "studentAddr",
          "type": "address"
        },
        {
          "internalType": "string",
          "name": "name",
          "type": "string"
        },
        {
          "internalType": "uint256",
          "name": "studentId",
          "type": "uint256"
        },
        {
          "internalType": "uint8",
          "name": "age",
          "type": "uint8"
        },
        {
          "internalType": "bool",
          "name": "hasPaid",
          "type": "bool"
        },
        {
          "internalType": "bool",
          "name": "isAuthorized",
          "type": "bool"
        }
      ],
      "stateMutability": "view",
      "type": "function"
    },
    {
      "inputs": [
        {
          "internalType": "address",
          "name": "_studentAddr",
          "type": "address"
        },
        {
          "internalType": "string",
          "name": "_name",
          "type": "string"
        },
        {
          "internalType": "uint8",
          "name": "_age",
          "type": "uint8"
        }
      ],
      "name": "updateStudentMapping",
      "outputs": [],
      "stateMutability": "nonpayable",
      "type": "function"
    },
    {
      "inputs": [],
      "name": "withdrawFees",
      "outputs": [],
      "stateMutability": "nonpayable",
      "type": "function"
    },
    {
      "stateMutability": "payable",
      "type": "receive"
    }
  ],
  "bytecode": "0x608060405234801561001057600080fd5b5033600460006101000a81548173ffffffffffffffffffffffffffffffffffffffff021916908373ffffffffffffffffffffffffffffffffffffffff16021790555061327d806100616000396000f3fe6080604052600436106100ec5760003560e01c8063730bcc5d1161008a578063ad5f157411610059578063ad5f1574146102f3578063aefe00641461031e578063c962314514610360578063e520c65d1461039d576100f3565b8063730bcc5d1461023b5780638711e827146102645780638fe4977f146102a1578063a6f9dae1146102ca576100f3565b806357f0b138116100c657806357f0b1381461015657806359bf9fcf1461017f57806364e70f41146101c15780636bb7620e146101fe576100f3565b80631fd30892146100f85780632961025214610135578063476343ee1461013f576100f3565b366100f357005b600080fd5b34801561010457600080fd5b5061011f600480360381019061011a9190612377565b6103c6565b60405161012c9190612541565b60405180910390f35b61013d6106af565b005b34801561014b57600080fd5b50610154610794565b005b34801561016257600080fd5b5061017d600480360381019061017891906126c4565b61093e565b005b34801561018b57600080fd5b506101a660048036038101906101a19190612733565b610dcb565b6040516101b8969594939291906127e6565b60405180910390f35b3480156101cd57600080fd5b506101e860048036038101906101e39190612733565b610ed6565b6040516101f59190612541565b60405180910390f35b34801561020a57600080fd5b5061022560048036038101906102209190612733565b611173565b6040516102329190612541565b60405180910390f35b34801561024757600080fd5b50610262600480360381019061025d9190612733565b611380565b005b34801561027057600080fd5b5061028b60048036038101906102869190612733565b611610565b604051610298919061284e565b60405180910390f35b3480156102ad57600080fd5b506102c860048036038101906102c39190612733565b6116d4565b005b3480156102d657600080fd5b506102f160048036038101906102ec91906128a7565b611949565b005b3480156102ff57600080fd5b50610308611a8c565b60405161031591906128d4565b60405180910390f35b34801561032a57600080fd5b5061034560048036038101906103409190612733565b611a96565b604051610357969594939291906127e6565b60405180910390f35b34801561036c57600080fd5b5061038760048036038101906103829190612733565b611ba1565b604051610394919061284e565b60405180910390f35b3480156103a957600080fd5b506103c460048036038101906103bf91906126c4565b611bc1565b005b6103ce61227a565b600073ffffffffffffffffffffffffffffffffffffffff163373ffffffffffffffffffffffffffffffffffffffff160361043d576040517f08c379a00000000000000000000000000000000000000000000000000000000081526004016104349061293b565b60405180910390fd5b600460009054906101000a900473ffffffffffffffffffffffffffffffffffffffff1673ffffffffffffffffffffffffffffffffffffffff163373ffffffffffffffffffffffffffffffffffffffff16146104cd576040517f08c379a00000000000000000000000000000000000000000000000000000000081526004016104c4906129cd565b60405180910390fd5b60008260ff161180156104e857506000805490508260ff1611155b610527576040517f08c379a000000000000000000000000000000000000000000000000000000000815260040161051e90612a39565b60405180910390fd5b60006001836105369190612a88565b60ff168154811061054a57610549612abd565b5b90600052602060002090600402016040518060c00160405290816000820160009054906101000a900473ffffffffffffffffffffffffffffffffffffffff1673ffffffffffffffffffffffffffffffffffffffff1673ffffffffffffffffffffffffffffffffffffffff1681526020016001820180546105c990612b1b565b80601f01602080910402602001604051908101604052809291908181526020018280546105f590612b1b565b80156106425780601f1061061757610100808354040283529160200191610642565b820191906000526020600020905b81548152906001019060200180831161062557829003601f168201915b50505050508152602001600282015481526020016003820160009054906101000a900460ff1660ff1660ff1681526020016003820160019054906101000a900460ff161515151581526020016003820160029054906101000a900460ff1615151515815250509050919050565b655af3107a400034146107015734655af3107a40006040517fa458261b0000000000000000000000000000000000000000000000000000000081526004016106f8929190612b4c565b60405180910390fd5b6001600360003373ffffffffffffffffffffffffffffffffffffffff1673ffffffffffffffffffffffffffffffffffffffff16815260200190815260200160002060006101000a81548160ff0219169083151502179055507f075a2720282fdf622141dae0b048ef90a21a7e57c134c76912d19d006b3b3f6f333460405161078a929190612b75565b60405180910390a1565b600460009054906101000a900473ffffffffffffffffffffffffffffffffffffffff1673ffffffffffffffffffffffffffffffffffffffff163373ffffffffffffffffffffffffffffffffffffffff1614610824576040517f08c379a000000000000000000000000000000000000000000000000000000000815260040161081b906129cd565b60405180910390fd5b60004790506000811161086c576040517f08c379a000000000000000000000000000000000000000000000000000000000815260040161086390612bea565b60405180910390fd5b6000600460009054906101000a900473ffffffffffffffffffffffffffffffffffffffff1673ffffffffffffffffffffffffffffffffffffffff16826040516108b490612c3b565b60006040518083038185875af1925050503d80600081146108f1576040519150601f19603f3d011682016040523d82523d6000602084013e6108f6565b606091505b505090508061093a576040517f08c379a000000000000000000000000000000000000000000000000000000000815260040161093190612c9c565b60405180910390fd5b5050565b600073ffffffffffffffffffffffffffffffffffffffff16600260008573ffffffffffffffffffffffffffffffffffffffff1673ffffffffffffffffffffffffffffffffffffffff16815260200190815260200160002060000160009054906101000a900473ffffffffffffffffffffffffffffffffffffffff1673ffffffffffffffffffffffffffffffffffffffff1614610a0f576040517f08c379a0000000000000000000000000000000000000000000000000000000008152600401610a0690612d08565b60405180910390fd5b600360003373ffffffffffffffffffffffffffffffffffffffff1673ffffffffffffffffffffffffffffffffffffffff16815260200190815260200160002060009054906101000a900460ff16610a9b576040517f08c379a0000000000000000000000000000000000000000000000000000000008152600401610a9290612d74565b60405180910390fd5b6000825103610ad6576040517fbeafaea000000000000000000000000000000000000000000000000000000000815260040160405180910390fd5b60128160ff161015610b22578060126040517f754e38be000000000000000000000000000000000000000000000000000000008152600401610b19929190612dd9565b60405180910390fd5b60006001600080549050610b369190612e02565b905060006040518060c001604052808673ffffffffffffffffffffffffffffffffffffffff1681526020018581526020018381526020018460ff168152602001600115158152602001600015158152509050600081908060018154018082558091505060019003906000526020600020906004020160009091909190915060008201518160000160006101000a81548173ffffffffffffffffffffffffffffffffffffffff021916908373ffffffffffffffffffffffffffffffffffffffff1602179055506020820151816001019081610c109190612fd8565b506040820151816002015560608201518160030160006101000a81548160ff021916908360ff16021790555060808201518160030160016101000a81548160ff02191690831515021790555060a08201518160030160026101000a81548160ff021916908315150217905550505080600260008773ffffffffffffffffffffffffffffffffffffffff1673ffffffffffffffffffffffffffffffffffffffff16815260200190815260200160002060008201518160000160006101000a81548173ffffffffffffffffffffffffffffffffffffffff021916908373ffffffffffffffffffffffffffffffffffffffff1602179055506020820151816001019081610d1a9190612fd8565b506040820151816002015560608201518160030160006101000a81548160ff021916908360ff16021790555060808201518160030160016101000a81548160ff02191690831515021790555060a08201518160030160026101000a81548160ff0219169083151502179055509050507f6b3d4a32e18351ca651dc8c9f0624a76c489e6c8091d4537c2ef186d469d6b5d858585604051610dbc939291906130aa565b60405180910390a15050505050565b60016020528060005260406000206000915090508060000160009054906101000a900473ffffffffffffffffffffffffffffffffffffffff1690806001018054610e1490612b1b565b80601f0160208091040260200160405190810160405280929190818152602001828054610e4090612b1b565b8015610e8d5780601f10610e6257610100808354040283529160200191610e8d565b820191906000526020600020905b815481529060010190602001808311610e7057829003601f168201915b5050505050908060020154908060030160009054906101000a900460ff16908060030160019054906101000a900460ff16908060030160029054906101000a900460ff16905086565b610ede61227a565b600073ffffffffffffffffffffffffffffffffffffffff163373ffffffffffffffffffffffffffffffffffffffff1603610f4d576040517f08c379a0000000000000000000000000000000000000000000000000000000008152600401610f449061293b565b60405180910390fd5b600460009054906101000a900473ffffffffffffffffffffffffffffffffffffffff1673ffffffffffffffffffffffffffffffffffffffff163373ffffffffffffffffffffffffffffffffffffffff1614610fdd576040517f08c379a0000000000000000000000000000000000000000000000000000000008152600401610fd4906129cd565b60405180910390fd5b600260008373ffffffffffffffffffffffffffffffffffffffff1673ffffffffffffffffffffffffffffffffffffffff1681526020019081526020016000206040518060c00160405290816000820160009054906101000a900473ffffffffffffffffffffffffffffffffffffffff1673ffffffffffffffffffffffffffffffffffffffff1673ffffffffffffffffffffffffffffffffffffffff16815260200160018201805461108d90612b1b565b80601f01602080910402602001604051908101604052809291908181526020018280546110b990612b1b565b80156111065780601f106110db57610100808354040283529160200191611106565b820191906000526020600020905b8154815290600101906020018083116110e957829003601f168201915b50505050508152602001600282015481526020016003820160009054906101000a900460ff1660ff1660ff1681526020016003820160019054906101000a900460ff161515151581526020016003820160029054906101000a900460ff1615151515815250509050919050565b61117b61227a565b600073ffffffffffffffffffffffffffffffffffffffff163373ffffffffffffffffffffffffffffffffffffffff16036111ea576040517f08c379a00000000000000000000000000000000000000000000000000000000081526004016111e19061293b565b60405180910390fd5b600160008373ffffffffffffffffffffffffffffffffffffffff1673ffffffffffffffffffffffffffffffffffffffff1681526020019081526020016000206040518060c00160405290816000820160009054906101000a900473ffffffffffffffffffffffffffffffffffffffff1673ffffffffffffffffffffffffffffffffffffffff1673ffffffffffffffffffffffffffffffffffffffff16815260200160018201805461129a90612b1b565b80601f01602080910402602001604051908101604052809291908181526020018280546112c690612b1b565b80156113135780601f106112e857610100808354040283529160200191611313565b820191906000526020600020905b8154815290600101906020018083116112f657829003601f168201915b50505050508152602001600282015481526020016003820160009054906101000a900460ff1660ff1660ff1681526020016003820160019054906101000a900460ff161515151581526020016003820160029054906101000a900460ff1615151515815250509050919050565b600460009054906101000a900473ffffffffffffffffffffffffffffffffffffffff1673ffffffffffffffffffffffffffffffffffffffff163373ffffffffffffffffffffffffffffffffffffffff1614611410576040517f08c379a0000000000000000000000000000000000000000000000000000000008152600401611407906129cd565b60405180910390fd5b600073ffffffffffffffffffffffffffffffffffffffff163373ffffffffffffffffffffffffffffffffffffffff160361147f576040517f08c379a00000000000000000000000000000000000000000000000000000000081526004016114769061293b565b60405180910390fd5b600073ffffffffffffffffffffffffffffffffffffffff16600160008373ffffffffffffffffffffffffffffffffffffffff1673ffffffffffffffffffffffffffffffffffffffff16815260200190815260200160002060000160009054906101000a900473ffffffffffffffffffffffffffffffffffffffff1673ffffffffffffffffffffffffffffffffffffffff1603611550576040517f08c379a000000000000000000000000000000000000000000000000000000000815260040161154790613134565b60405180910390fd5b600160008273ffffffffffffffffffffffffffffffffffffffff1673ffffffffffffffffffffffffffffffffffffffff168152602001908152602001600020600080820160006101000a81549073ffffffffffffffffffffffffffffffffffffffff02191690556001820160006115c791906122cd565b60028201600090556003820160006101000a81549060ff02191690556003820160016101000a81549060ff02191690556003820160026101000a81549060ff0219169055505050565b60008073ffffffffffffffffffffffffffffffffffffffff163373ffffffffffffffffffffffffffffffffffffffff1603611680576040517f08c379a00000000000000000000000000000000000000000000000000000000081526004016116779061293b565b60405180910390fd5b600360008373ffffffffffffffffffffffffffffffffffffffff1673ffffffffffffffffffffffffffffffffffffffff16815260200190815260200160002060009054906101000a900460ff169050919050565b600460009054906101000a900473ffffffffffffffffffffffffffffffffffffffff1673ffffffffffffffffffffffffffffffffffffffff163373ffffffffffffffffffffffffffffffffffffffff1614611764576040517f08c379a000000000000000000000000000000000000000000000000000000000815260040161175b906129cd565b60405180910390fd5b600073ffffffffffffffffffffffffffffffffffffffff16600260008373ffffffffffffffffffffffffffffffffffffffff1673ffffffffffffffffffffffffffffffffffffffff16815260200190815260200160002060000160009054906101000a900473ffffffffffffffffffffffffffffffffffffffff1673ffffffffffffffffffffffffffffffffffffffff1603611835576040517f08c379a000000000000000000000000000000000000000000000000000000000815260040161182c906131a0565b60405180910390fd5b600073ffffffffffffffffffffffffffffffffffffffff16600160008373ffffffffffffffffffffffffffffffffffffffff1673ffffffffffffffffffffffffffffffffffffffff16815260200190815260200160002060000160009054906101000a900473ffffffffffffffffffffffffffffffffffffffff1673ffffffffffffffffffffffffffffffffffffffff1614611906576040517f08c379a00000000000000000000000000000000000000000000000000000000081526004016118fd90612d08565b60405180910390fd5b61190f81611e5c565b7fe0394c71cdd12ce9db4ad6f7ddbc76682f0ddfff1fe0c982d37ad7abbc4271a38160405161193e91906131c0565b60405180910390a150565b600460009054906101000a900473ffffffffffffffffffffffffffffffffffffffff1673ffffffffffffffffffffffffffffffffffffffff163373ffffffffffffffffffffffffffffffffffffffff16146119d9576040517f08c379a00000000000000000000000000000000000000000000000000000000081526004016119d0906129cd565b60405180910390fd5b600073ffffffffffffffffffffffffffffffffffffffff168173ffffffffffffffffffffffffffffffffffffffff1603611a48576040517f08c379a0000000000000000000000000000000000000000000000000000000008152600401611a3f90613227565b60405180910390fd5b80600460006101000a81548173ffffffffffffffffffffffffffffffffffffffff021916908373ffffffffffffffffffffffffffffffffffffffff16021790555050565b655af3107a400081565b60026020528060005260406000206000915090508060000160009054906101000a900473ffffffffffffffffffffffffffffffffffffffff1690806001018054611adf90612b1b565b80601f0160208091040260200160405190810160405280929190818152602001828054611b0b90612b1b565b8015611b585780601f10611b2d57610100808354040283529160200191611b58565b820191906000526020600020905b815481529060010190602001808311611b3b57829003601f168201915b5050505050908060020154908060030160009054906101000a900460ff16908060030160019054906101000a900460ff16908060030160029054906101000a900460ff16905086565b60036020528060005260406000206000915054906101000a900460ff1681565b600460009054906101000a900473ffffffffffffffffffffffffffffffffffffffff1673ffffffffffffffffffffffffffffffffffffffff163373ffffffffffffffffffffffffffffffffffffffff1614611c51576040517f08c379a0000000000000000000000000000000000000000000000000000000008152600401611c48906129cd565b60405180910390fd5b600073ffffffffffffffffffffffffffffffffffffffff16600160008573ffffffffffffffffffffffffffffffffffffffff1673ffffffffffffffffffffffffffffffffffffffff16815260200190815260200160002060000160009054906101000a900473ffffffffffffffffffffffffffffffffffffffff1673ffffffffffffffffffffffffffffffffffffffff1603611d22576040517f08c379a0000000000000000000000000000000000000000000000000000000008152600401611d1990613134565b60405180910390fd5b6000825103611d5d576040517fbeafaea000000000000000000000000000000000000000000000000000000000815260040160405180910390fd5b60128160ff161015611da9578060126040517f754e38be000000000000000000000000000000000000000000000000000000008152600401611da0929190612dd9565b60405180910390fd5b6000600160008573ffffffffffffffffffffffffffffffffffffffff1673ffffffffffffffffffffffffffffffffffffffff168152602001908152602001600020905082816001019081611dfd9190612fd8565b50818160030160006101000a81548160ff021916908360ff1602179055507f8db5919c781fecee38c4610919ab8778a69e557b6c6e0194b4fd2c972327fffb848484604051611e4e939291906130aa565b60405180910390a150505050565b60006001600080549050611e709190612e02565b905060006040518060c00160405280600260008673ffffffffffffffffffffffffffffffffffffffff1673ffffffffffffffffffffffffffffffffffffffff16815260200190815260200160002060000160009054906101000a900473ffffffffffffffffffffffffffffffffffffffff1673ffffffffffffffffffffffffffffffffffffffff168152602001600260008673ffffffffffffffffffffffffffffffffffffffff1673ffffffffffffffffffffffffffffffffffffffff1681526020019081526020016000206001018054611f4a90612b1b565b80601f0160208091040260200160405190810160405280929190818152602001828054611f7690612b1b565b8015611fc35780601f10611f9857610100808354040283529160200191611fc3565b820191906000526020600020905b815481529060010190602001808311611fa657829003601f168201915b50505050508152602001838152602001600260008673ffffffffffffffffffffffffffffffffffffffff1673ffffffffffffffffffffffffffffffffffffffff16815260200190815260200160002060030160009054906101000a900460ff1660ff168152602001600115158152602001600115158152509050600081908060018154018082558091505060019003906000526020600020906004020160009091909190915060008201518160000160006101000a81548173ffffffffffffffffffffffffffffffffffffffff021916908373ffffffffffffffffffffffffffffffffffffffff16021790555060208201518160010190816120c59190612fd8565b506040820151816002015560608201518160030160006101000a81548160ff021916908360ff16021790555060808201518160030160016101000a81548160ff02191690831515021790555060a08201518160030160026101000a81548160ff021916908315150217905550505080600160008573ffffffffffffffffffffffffffffffffffffffff1673ffffffffffffffffffffffffffffffffffffffff16815260200190815260200160002060008201518160000160006101000a81548173ffffffffffffffffffffffffffffffffffffffff021916908373ffffffffffffffffffffffffffffffffffffffff16021790555060208201518160010190816121cf9190612fd8565b506040820151816002015560608201518160030160006101000a81548160ff021916908360ff16021790555060808201518160030160016101000a81548160ff02191690831515021790555060a08201518160030160026101000a81548160ff0219169083151502179055509050507f58e667737fa2d046b00b440a285ac9642feba659628fc0a5cbe0cbcc55e5a1258360405161226d91906131c0565b60405180910390a1505050565b6040518060c00160405280600073ffffffffffffffffffffffffffffffffffffffff1681526020016060815260200160008152602001600060ff1681526020016000151581526020016000151581525090565b5080546122d990612b1b565b6000825580601f106122eb575061230a565b601f016020900490600052602060002090810190612309919061230d565b5b50565b5b8082111561232657600081600090555060010161230e565b5090565b6000604051905090565b600080fd5b600080fd5b600060ff82169050919050565b6123548161233e565b811461235f57600080fd5b50565b6000813590506123718161234b565b92915050565b60006020828403121561238d5761238c612334565b5b600061239b84828501612362565b91505092915050565b600073ffffffffffffffffffffffffffffffffffffffff82169050919050565b60006123cf826123a4565b9050919050565b6123df816123c4565b82525050565b600081519050919050565b600082825260208201905092915050565b60005b8381101561241f578082015181840152602081019050612404565b60008484015250505050565b6000601f19601f8301169050919050565b6000612447826123e5565b61245181856123f0565b9350612461818560208601612401565b61246a8161242b565b840191505092915050565b6000819050919050565b61248881612475565b82525050565b6124978161233e565b82525050565b60008115159050919050565b6124b28161249d565b82525050565b600060c0830160008301516124d060008601826123d6565b50602083015184820360208601526124e8828261243c565b91505060408301516124fd604086018261247f565b506060830151612510606086018261248e565b50608083015161252360808601826124a9565b5060a083015161253660a08601826124a9565b508091505092915050565b6000602082019050818103600083015261255b81846124b8565b905092915050565b61256c816123c4565b811461257757600080fd5b50565b60008135905061258981612563565b92915050565b600080fd5b600080fd5b7f4e487b7100000000000000000000000000000000000000000000000000000000600052604160045260246000fd5b6125d18261242b565b810181811067ffffffffffffffff821117156125f0576125ef612599565b5b80604052505050565b600061260361232a565b905061260f82826125c8565b919050565b600067ffffffffffffffff82111561262f5761262e612599565b5b6126388261242b565b9050602081019050919050565b82818337600083830152505050565b600061266761266284612614565b6125f9565b90508281526020810184848401111561268357612682612594565b5b61268e848285612645565b509392505050565b600082601f8301126126ab576126aa61258f565b5b81356126bb848260208601612654565b91505092915050565b6000806000606084860312156126dd576126dc612334565b5b60006126eb8682870161257a565b935050602084013567ffffffffffffffff81111561270c5761270b612339565b5b61271886828701612696565b925050604061272986828701612362565b9150509250925092565b60006020828403121561274957612748612334565b5b60006127578482850161257a565b91505092915050565b612769816123c4565b82525050565b600082825260208201905092915050565b600061278b826123e5565b612795818561276f565b93506127a5818560208601612401565b6127ae8161242b565b840191505092915050565b6127c281612475565b82525050565b6127d18161233e565b82525050565b6127e08161249d565b82525050565b600060c0820190506127fb6000830189612760565b818103602083015261280d8188612780565b905061281c60408301876127b9565b61282960608301866127c8565b61283660808301856127d7565b61284360a08301846127d7565b979650505050505050565b600060208201905061286360008301846127d7565b92915050565b6000612874826123a4565b9050919050565b61288481612869565b811461288f57600080fd5b50565b6000813590506128a18161287b565b92915050565b6000602082840312156128bd576128bc612334565b5b60006128cb84828501612892565b91505092915050565b60006020820190506128e960008301846127b9565b92915050565b7f496e76616c696420616464726573730000000000000000000000000000000000600082015250565b6000612925600f8361276f565b9150612930826128ef565b602082019050919050565b6000602082019050818103600083015261295481612918565b9050919050565b7f4f6e6c7920746865206f776e65722063616e2063616c6c20746869732066756e60008201527f6374696f6e000000000000000000000000000000000000000000000000000000602082015250565b60006129b760258361276f565b91506129c28261295b565b604082019050919050565b600060208201905081810360008301526129e6816129aa565b9050919050565b7f496e76616c69642073747564656e742049440000000000000000000000000000600082015250565b6000612a2360128361276f565b9150612a2e826129ed565b602082019050919050565b60006020820190508181036000830152612a5281612a16565b9050919050565b7f4e487b7100000000000000000000000000000000000000000000000000000000600052601160045260246000fd5b6000612a938261233e565b9150612a9e8361233e565b9250828203905060ff811115612ab757612ab6612a59565b5b92915050565b7f4e487b7100000000000000000000000000000000000000000000000000000000600052603260045260246000fd5b7f4e487b7100000000000000000000000000000000000000000000000000000000600052602260045260246000fd5b60006002820490506001821680612b3357607f821691505b602082108103612b4657612b45612aec565b5b50919050565b6000604082019050612b6160008301856127b9565b612b6e60208301846127b9565b9392505050565b6000604082019050612b8a6000830185612760565b612b9760208301846127b9565b9392505050565b7f4e6f206665657320746f20776974686472617700000000000000000000000000600082015250565b6000612bd460138361276f565b9150612bdf82612b9e565b602082019050919050565b60006020820190508181036000830152612c0381612bc7565b9050919050565b600081905092915050565b50565b6000612c25600083612c0a565b9150612c3082612c15565b600082019050919050565b6000612c4682612c18565b9150819050919050565b7f4661696c656420746f2077697468647261772066656573000000000000000000600082015250565b6000612c8660178361276f565b9150612c9182612c50565b602082019050919050565b60006020820190508181036000830152612cb581612c79565b9050919050565b7f596f7527726520616c7265616479207265676973746572656400000000000000600082015250565b6000612cf260198361276f565b9150612cfd82612cbc565b602082019050919050565b60006020820190508181036000830152612d2181612ce5565b9050919050565b7f596f75206d757374207061792066697273740000000000000000000000000000600082015250565b6000612d5e60128361276f565b9150612d6982612d28565b602082019050919050565b60006020820190508181036000830152612d8d81612d51565b9050919050565b6000819050919050565b6000819050919050565b6000612dc3612dbe612db984612d94565b612d9e565b61233e565b9050919050565b612dd381612da8565b82525050565b6000604082019050612dee60008301856127c8565b612dfb6020830184612dca565b9392505050565b6000612e0d82612475565b9150612e1883612475565b9250828201905080821115612e3057612e2f612a59565b5b92915050565b60008190508160005260206000209050919050565b60006020601f8301049050919050565b600082821b905092915050565b600060088302612e987fffffffffffffffffffffffffffffffffffffffffffffffffffffffffffffffff82612e5b565b612ea28683612e5b565b95508019841693508086168417925050509392505050565b6000612ed5612ed0612ecb84612475565b612d9e565b612475565b9050919050565b6000819050919050565b612eef83612eba565b612f03612efb82612edc565b848454612e68565b825550505050565b600090565b612f18612f0b565b612f23818484612ee6565b505050565b5b81811015612f4757612f3c600082612f10565b600181019050612f29565b5050565b601f821115612f8c57612f5d81612e36565b612f6684612e4b565b81016020851015612f75578190505b612f89612f8185612e4b565b830182612f28565b50505b505050565b600082821c905092915050565b6000612faf60001984600802612f91565b1980831691505092915050565b6000612fc88383612f9e565b9150826002028217905092915050565b612fe1826123e5565b67ffffffffffffffff811115612ffa57612ff9612599565b5b6130048254612b1b565b61300f828285612f4b565b600060209050601f8311600181146130425760008415613030578287015190505b61303a8582612fbc565b8655506130a2565b601f19841661305086612e36565b60005b8281101561307857848901518255600182019150602085019450602081019050613053565b868310156130955784890151613091601f891682612f9e565b8355505b6001600288020188555050505b505050505050565b60006060820190506130bf6000830186612760565b81810360208301526130d18185612780565b90506130e060408301846127c8565b949350505050565b7f53747564656e7420646f6573206e6f7420657869737400000000000000000000600082015250565b600061311e60168361276f565b9150613129826130e8565b602082019050919050565b6000602082019050818103600083015261314d81613111565b9050919050565b7f496e76616c696420416464726573730000000000000000000000000000000000600082015250565b600061318a600f8361276f565b915061319582613154565b602082019050919050565b600060208201905081810360008301526131b98161317d565b9050919050565b60006020820190506131d56000830184612760565b92915050565b7f496e76616c6964206e6577206f776e6572206164647265737300000000000000600082015250565b600061321160198361276f565b915061321c826131db565b602082019050919050565b6000602082019050818103600083015261324081613204565b905091905056fea2646970667358221220009d6a2fa8a9dd2b437508ad605f119822b92ffc30e2e22b54d0ae778fd38e2464736f6c63430008170033",
  "linkReferences": {},
  "deployedLinkReferences": {}
}